:020000040800F2
:10000000405D002059020008B7160008AF1600082E
:10001000B316000827080008AB26000800000000FF
:10002000000000000000000000000000A101000826
:10003000A115000800000000F5010008951E000849
:1000400073020008730200087302000873020008BC
:1000500073020008730200087302000873020008AC
:10006000730200087302000873020008730200089C
:10007000730200087302000873020008730200088C
:10008000730200087302000873020008730200087C
:100090002D090008730200087302000873020008AB
:1000A000730200087302000873020008730200085C
:1000B000730200080D1F0008730200087302000895
:1000C000730200087302000873020008730200083C
:1000D000730200089122000873020008E922000858
:1000E000730200087302000873020008730200081C
:1000F000730200087302000873020008730200080C
:1001000073020008730200087302000873020008FB
:1001100073020008730200087302000873020008EB
:1001200073020008730200087302000873020008DB
:1001300073020008730200087302000873020008CB
:1001400073020008F50C000873020008730200082F
:1001500073020008730200087302000873020008AB
:10016000730200087302000873020008730200089B
:10017000730200087302000873020008730200088B
:100180007302000873020008DFF810D000F00EFBC5
:1001900000480047612B0008AFF30080405D00205D
:1001A0002A4B19680868B0E8F04F80F30988BFF35C
:1001B0006F8F4FF0000080F311887047000000003F
:1001C00006480068006880F3088862B661B6BFF32D
:1001D0004F8FBFF36F8F00DF00BF00BF08ED00E05F
:1001E000DFF80C00016841F470010160704700BF46
:1001F00088ED00E0EFF30980BFF36F8F134B1A68AF
:100200001EF0100F08BF20ED108A20E9F04F10609B
:1002100008B44FF0500080F31188BFF34F8FBFF345
:100220006F8F04F06DF84FF0000080F3118808BC68
:1002300019680868B0E8F04F1EF0100F08BFB0EC66
:10024000108A80F30988BFF36F8F70472400002065
:10025000EFF30580704700000648804706480047D6
:10026000FEE7FEE7FEE7FEE7FEE7FEE7FEE7FEE766
:10027000FEE7FEE7A51E00088901000840EA010329
:100280009B0703D009E008C9121F08C0042AFAD24C
:1002900003E011F8013B00F8013B521EF9D2704710
:1002A000D2B201E000F8012B491EFBD270470022B8
:1002B000F6E710B513460A4604461946FFF7F0FF65
:1002C000204610BD2DE9FE4F804681EA0300C00F95
:1002D0000C46009021F0004123F00045B8EB0200ED
:1002E000A94105D24046214690461C460B4602468F
:1002F00023F00040104347D0270DC7F30A00C3F393
:100300000A510290401A019040286BDAC3F313009F
:1003100040F4801B0098924620B10023D2EB030AE0
:1003200063EB0B0B01985946C0F14002504600F0B8
:10033000AFF906460D4650465946019A00F0C7F9F6
:1003400010EB08006141002487EA115284EAE77348
:100350001A4340D0009A62B3019A012A4FEA075229
:1003600015DC001B61EB02014FF0004202EA07526C
:10037000CDE90042001C41F5801132462B4600F0C9
:10038000C7F903B0BDE8F08F40462146F9E7001BEE
:1003900061EB0201001C41F5801300185B4120183D
:1003A000A2F5001747EB030140EAD570B6196D417D
:1003B00011E06D084FEA360645EAC0754FEA07526C
:1003C000001B61EB0201001C41F5801149084FEA56
:1003D00030000019514132462B4603B0BDE8F04FC2
:1003E00000F087B90098012240000023D0EB020200
:1003F00063EBE073009821464FEAE074B8EB00002D
:1004000061EB0401E9E783F000435BE781F0004121
:1004100058E72DE9FE4F81EA030404F0004421F07F
:10042000004100944FF0000B23F0004350EA010418
:100430005ED052EA03045BD0C3F30A54C1F30A55F9
:100440002C44A4F2F3340194A0FB0254C1F3130131
:1004500041F48011C3F3130343F4801301FB0244FE
:1004600000FB034E840A970A44EA815447EA835703
:10047000A4FB076802958D0A05FB07854FEA932CBC
:1004800004FB0C542705029D4FEA065847EA16372D
:10049000B5EB08056EEB070C870E920E47EA811745
:1004A00042EA8312A7FB0201B6EB0B0164EB0004E6
:1004B0002B0D43EA0C335E1844EB1C50DA465146D0
:1004C000E7FB0201C5F313044FEA0B3343EA14536D
:1004D0004FEA0432019C43EA0603A4F10C0402949F
:1004E000009CCDE900B400F013F903B0BDE8F08F33
:1004F00000200146F9E72DE9F04D81EA030404F0FC
:10050000004B21F0004514464FF0000A23F0004153
:1005100050EA050220D054EA01021DD0C5F30A5763
:100520000246C5F31303C1F31300C1F30A5640F4A6
:10053000801543F48013A7EB0608101BD64608F27B
:10054000FD3873EB050002D308F1010801E09218B1
:100550005B41B8F1000F03DA00200146BDE8F08DE1
:1005600000204FF48011064684460EE0171B73EB03
:10057000050705D3121B63EB050306434CEA010C88
:1005800049084FEA300092185B4150EA0107EDD16B
:1005900052EA030012D082EA040083EA050108430C
:1005A00005D0101BAB4106D20122002306E0002239
:1005B0004FF0004302E06FF0010253101AEB060007
:1005C0004CEB085110EB0A0041EB0B01BDE8F04D7C
:1005D00000F08FB80EB5C10F80EAE0700844CA077A
:1005E000002140F233438DE80E000A460B4600F02E
:1005F0008FF803B000BD70B5C1F30A5201F0004599
:100600000024C1F3130140F2FF3341F480119A42F8
:1006100001DA002070BD40F233439A42A2F2334225
:1006200003DC524200F043F800E090402C43F1D04C
:10063000404270BD30B5041E71F1000404DB4FF080
:100640000044404264EB0101141E73F1000405DB19
:100650001C464FF00043524263EB04038B4208BF39
:10066000824230BD30B50B460146002020220124D5
:1006700009E021FA02F59D4205D303FA02F5491B70
:1006800004FA02F52844151EA2F10102F1DC30BD86
:10069000202A04DB203A00FA02F100207047914042
:1006A000C2F1200320FA03F3194390407047202A37
:1006B00004DB203A21FA02F00021704721FA02F30C
:1006C000D040C2F120029140084319467047202AC9
:1006D00006DBCB17203A41FA02F043EAE07306E06A
:1006E00041FA02F3D040C2F120029140084319467A
:1006F000704710B5141E73F1000408DA401C41F174
:10070000000192185B411A4301D120F0010010BD95
:100710002DE9F04D92469B4611B1B1FA81F202E00B
:10072000B0FA80F220329046FFF7B2FF04460F463F
:1007300040EA0A0041EA0B0153465A46084313D0E7
:10074000114653EA010019D0C8F140025046FFF7A4
:10075000AEFF05460E46504659464246FFF798FF03
:10076000084305D0012004E020463946BDE8F08D5D
:100770000020054346EAE0762C4337430A98630598
:10078000E40AA0EB08000022FD0A44EA47540A30BC
:1007900002D500200146E9E7010510196941DDE9AC
:1007A000084500196941BDE8F04DA2E7064C074D28
:1007B00006E0E06840F0010394E807009847103431
:1007C000AC42F6D3FFF7E4FC48510008685100083A
:1007D00070B58C1810F8015B15F0070301D110F803
:1007E000013B2A1106D110F8012B03E010F8016B30
:1007F00001F8016B5B1EF9D12B0705D40023521EB3
:100800000DD401F8013BFAE710F8013BCB1A921C1A
:1008100003E013F8015B01F8015B521EF9D5A14218
:10082000D8D3002070BD00BFFEE700002DE9F041E5
:100830008AB004460D4616461F46DDF84080012169
:10084000084601F0C1F80121480601F0CDF84FF447
:10085000C050089002208DF8240000208DF826005A
:1008600003208DF8250001208DF8270008A92D48C8
:1008700000F0B0FE09220B212A4800F0F3FE092205
:100880000C21284800F0EEFE00208DF81A008DF8AB
:100890001B008DF81C0001208DF81D0000208DF834
:1008A0001E008DF81F008DF816808DF817408DF80A
:1008B00018608DF81950ADF8147005A91A4800F0A9
:1008C000B4FB00208DF80E008DF80F0001208DF88C
:1008D00010000020ADF80400ADF80600ADF80800E7
:1008E000ADF80A00ADF80C0001208DF8110001A848
:1008F00000F00EFB012202210B4800F08DFB1420BA
:100900008DF8000001208DF8010000208DF8020014
:1009100001208DF80300684600F0CEFE00200AB0EA
:10092000BDE8F081000002400064004010B5AE4A0E
:100930000021AE4800F003FCAB480068A0F20120A3
:1009400030B1012856D002287ED0032851D1F7E0DB
:10095000A748B0F87810B0F98A00081AB0F5805F9F
:1009600006DDA348D0F88410491EC0F884100EE0BC
:100970009F48B0F87810B0F98A00081A10F5805F27
:1009800005DA9B48D0F88410491CC0F884109848B8
:10099000B0F8780001B29648A0F88A109248007B1F
:1009A0009149C97A40EA01219148A0F878108E480F
:1009B000817B407B41EA002001B28D48A0F87A108B
:1009C0008948017CC07B41EA002001B28848A0F838
:1009D0007C108548417C864880F88810D0F88400D7
:1009E000C0EB40318248B0F8780001448048C0F83C
:1009F0008010F7E07E48B0F8E810B0F9FA00081A65
:100A0000B0F5805F06DD7A48D0F8F410491EC0F8D2
:100A1000F4100EE07648B0F8E810B0F9FA00081AC1
:100A200010F5805F05DA7248D0F8F410491CC0F860
:100A3000F4106F48B0F8E80001B26D48A0F8FA1061
:100A40006948007B684900E028E0C97A40EA012152
:100A50006748A0F8E8106448817B407B41EA0020A9
:100A600001B26348A0F8EA105F48017CC07B41EA0C
:100A7000002001B25E48A0F8EC105B48417C5C4865
:100A800080F8F810D0F8F400C0EB40315848B0F8C6
:100A9000E80001445648C0F8F010A3E05448B0F80C
:100AA0005811B0F96A01081AB0F5805F06DD5048A8
:100AB000D0F86411491EC0F864110EE04C48B0F83B
:100AC0005811B0F96A01081A10F5805F05DA484834
:100AD000D0F86411491CC0F864114548B0F85801B9
:100AE00001B24348A0F86A113F48007B3E49C97AE9
:100AF00040EA01213E48A0F858113B48817B407BE9
:100B000041EA002001B23A48A0F85A113648017C67
:100B1000C07B41EA002001B23548A0F85C113248A0
:100B2000417C334880F86811D0F86401C0EB403153
:100B30002F48B0F8580101442D48C0F8601151E029
:100B40002B48B0F8C811B0F9DA01081AB0F5805F87
:100B500006DD2748D0F8D411491EC0F8D4110EE0A4
:100B60002348B0F8C811B0F9DA01081A10F5805F0F
:100B700005DA1F48D0F8D411491CC0F8D4111C481C
:100B8000B0F8C80101B21A48A0F8DA111648007B83
:100B90001549C97A40EA01211548A0F8C811124840
:100BA000817B407B41EA002001B21148A0F8CA11C4
:100BB0000D48017CC07B41EA002001B20C48A0F83E
:100BC000CC110948417C0A4880F8D811D0F8D401EA
:100BD000C0EB40310648B0F8C80101440448C0F8F1
:100BE000D01100BF00BF10BD985800200064004025
:100BF0000C5500202DE9F0418AB004460D461646FA
:100C00001F46DDF840800121022000F0DDFE0121B9
:100C1000880600F0E9FE6020089002208DF824008C
:100C200000208DF8260003208DF8250001208DF886
:100C3000270008A92D4800F0CDFC092206212B48E9
:100C400000F010FD09220521284800F00BFD0020CE
:100C50008DF81A008DF81B008DF81C0001208DF80E
:100C60001D0000208DF81E008DF81F008DF81680E5
:100C70008DF817408DF818608DF81950ADF8147084
:100C800005A91B4800F0D1F90E208DF80E000020B8
:100C90008DF80F0001208DF810000020ADF8040041
:100CA000ADF80600ADF80800ADF80A000120ADF877
:100CB0000C008DF8110001A800F02AF90122102182
:100CC0000B4800F0A9F941208DF8000001208DF8B3
:100CD000010000208DF8020001208DF80300684615
:100CE00000F0EAFC00200AB0BDE8F08100040240F8
:100CF0000068004010B5834A0121834800F01FFAC4
:100D000080480068A0F2012020B1012854D00228B8
:100D100051D1A3E07D48B0F84C12B0F95E02081A38
:100D2000B0F5805F06DD7948D0F85812491EC0F84A
:100D300058120EE07548B0F84C12B0F95E02081A6D
:100D400010F5805F05DA7148D0F85812491CC0F8D8
:100D500058126E48B0F84C0201B26C48A0F85E120E
:100D60006848007B6749C97A40EA01216748A0F8D2
:100D70004C126448817B407B41EA002001B2634809
:100D8000A0F84E125F48017CC07B41EA002001B20E
:100D90005E48A0F850125B48417C5C4880F85C12C9
:100DA000D0F85802C0EB40315848B0F84C0201442A
:100DB0005648C0F85412A3E05448B0F8BC12B0F939
:100DC000CE02081AB0F5805F06DD5048D0F8C81290
:100DD000491EC0F8C8120EE04C48B0F8BC12B0F979
:100DE000CE02081A10F5805F05DA4848D0F8C8121C
:100DF000491CC0F8C8124548B0F8BC0201B24348CB
:100E0000A0F8CE123F48007B3E49C97A40EA012152
:100E10003E48A0F8BC123B48817B407B41EA002061
:100E200001B23A48A0F8BE123648017CC07B41EAC4
:100E3000002001B23548A0F8C0123248417C334846
:100E400080F8CC12D0F8C802C0EB40312F48B0F87F
:100E5000BC0201442D48C0F8C41251E02B48B0F840
:100E60002C13B0F93E03081AB0F5805F06DD274861
:100E7000D0F83813491EC0F838130EE02348B0F8F4
:100E80002C13B0F93E03081A10F5805F05DA1F48ED
:100E9000D0F83813491CC0F838131C48B0F82C039C
:100EA00001B21A48A0F83E131648007B1549C97ACA
:100EB00040EA01211548A0F82C131248817B407BA1
:100EC00041EA002001B21148A0F82E130D48017C20
:100ED000C07B41EA002001B20C48A0F83013094859
:100EE000417C0A4880F83C13D0F83803C0EB40310D
:100EF0000648B0F82C0301440448C0F8341300BF7E
:100F000000BF10BDAC580020006800400C55002008
:100F100010B50021837A012202FA03F13D4A1268DA
:100F200042F001023B4B1A603A4A1C3212688A4373
:100F3000384B1C331A60027BCAB9364A0C3212682D
:100F40008A43344B0C331A604288C38842EA034315
:100F5000304A4032847A42F834300288838842EA48
:100F600003432C4A4032847A02EBC4025360027B72
:100F7000012A19D1274A0C3212680A43254B0C3337
:100F80001A604288038842EA0343224A4032847A44
:100F900042F83430C288838842EA03431D4A403213
:100FA000847A02EBC4025360C27A3AB9194A121D1C
:100FB00012688A43174B1B1D1A6006E0154A121D62
:100FC00012680A43134B1B1D1A60028932B9114A79
:100FD000143212688A430F4B14331A600289012AB3
:100FE00006D10C4A143212680A430A4B14331A60B1
:100FF000427B012A06D1074A1C3212680A43054B7C
:101000001C331A60034A126822F00102014B1A6075
:1010100010BD0000006600401AB143690B434361F4
:1010200002E043698B434361704730B502460020BC
:101030000023146824F002041460146844F00104CE
:10104000146000E05B1C546804F001041CB94FF606
:10105000FF74A342F6D1546804F001040CB90020D7
:101060006CE08C79012C04D1146844F08004146085
:1010700003E0146824F080041460CC79012C04D1BE
:10108000146844F04004146003E0146824F0400441
:1010900014600C7A012C04D1146844F0200414600C
:1010A00003E0146824F0200414604C7A012C04D16D
:1010B000146844F01004146003E0146824F0100471
:1010C00014608C7A012C04D1146844F00804146074
:1010D00003E0146824F008041460CC7A012C04D1D5
:1010E000146844F00404146003E0146824F0040459
:1010F00014608C78A407CD7844EA05640D7944EA3D
:1011000005444D7944EA05540D886D1E2C43D46185
:10111000146824F001041460002300E05B1C546890
:1011200004F001041CB14FF6FF74A342F6D15468D9
:1011300004F001040CB1002000E0012030BD10B526
:1011400000F5D87303EB01131B6803F0040313725B
:10115000137A53B900F5D87303EB01131B6840F2FF
:10116000FF7404EA5353136009E000F5D87303EBEE
:1011700001131B686FF0604404EAD303536000F569
:10118000D87303EB01131B6803F00203537200F5DD
:10119000D87303EB01135B6803F00F03937200F540
:1011A000D87303EB01135B681B0AD37400F5D87383
:1011B00003EB01139B68D37200F5D87303EB0113A3
:1011C0009B681C0A147300F5D87303EB01139B682A
:1011D0001C0C547300F5D87303EB01139B681B0EB2
:1011E000937300F5D87303EB0113DB68D37300F539
:1011F000D87303EB0113DB681C0A147400F5D87371
:1012000003EB0113DB681C0C547400F5D87303EB7B
:101210000113DB681B0E937421B9C36843F02003EC
:10122000C36003E0036943F02003036110BD10B500
:1012300002460020936803F08063B3F1806F00D111
:1012400010E0936803F00063B3F1006F01D1012057
:1012500008E0936803F08053B3F1805F01D102206E
:1012600000E00420042874D002F5C07303EB0013DF
:101270001B6803F0010402F5C07303EB00131C604C
:101280000B7A7BB94B7A0C8843EA445302F5C0745D
:1012900004EB00142468234302F5C07404EB00142B
:1012A000236010E00B7A4C6843EAC4034C7A234372
:1012B00002F5C07404EB00142468234302F5C074E3
:1012C00004EB001423608B7A03F00F038B7202F59A
:1012D000C07303EB00135B6823F00F0402F5C073C7
:1012E00003EB00135C6002F5C07303EB00135B6853
:1012F0008C7A234302F5C07404EB001463608B7B8B
:101300001C064B7B44EA03440B7B44EA0323CC7A60
:10131000234302F5C07404EB0014A3608B7C1C060D
:101320004B7C44EA03440B7C44EA0323CC7B2343F9
:1013300002F5C07404EB0014E36002F5C07303EB24
:1013400000131B6843F0010402F5C07303EB0013A4
:101350001C6010BD0246094B9A4201D2084801E0C8
:101360000648103801F000531BB1064B0B40C36018
:1013700002E0044B0B4083607047000010640240A1
:10138000006002407D0F7D0F21B1026842F0010232
:10139000026003E0026822F0010202607047000070
:1013A000016821F00101016000210160416081605C
:1013B000C1600161212141614A49884204D13D2136
:1013C000484A103A91608CE046491831884205D16C
:1013D0004FF47461434A103A916082E041493031E0
:1013E000884205D14FF474113E4A103A916078E07A
:1013F0003C494831884205D14FF07461394A103A6E
:1014000091606EE037496031884204D13649354AEF
:10141000103AD16065E033497831884204D13349CC
:10142000304A103AD1605CE02E499031884204D1B4
:101430002F492C4A103AD16053E02A49A8318842FA
:1014400005D14FF03D51274A103AD16049E0294972
:10145000884204D13D21274A083A116041E02549DC
:101460001831884205D14FF47461224A083A11605C
:1014700037E020493031884205D14FF474111D4ABC
:10148000083A11602DE01B494831884205D14FF0E0
:101490007461184A083A116023E0164960318842A5
:1014A00004D11149134A121F11601AE01149783111
:1014B000884204D10D490F4A121F116011E00D49F5
:1014C0009031884204D10A490A4A121F116008E08B
:1014D0000849A831884204D14FF03D51054A121FF6
:1014E00011607047106002403D000020400F002056
:1014F00000003D201064024021B1026842F48022C5
:10150000026003E0026822F480220260704722B188
:10151000036843F40023036003E0036823F400231B
:101520000360016170470146486880B27047014618
:1015300000200A6802F400220AB1012000E0002025
:101540007047000010B500220268134B1A40CC68A7
:101550000B6823434C6923438C692343CC692343A1
:101560000C6A23434C6A23438C6A23434C6B23430A
:101570008C6B23431A430260426922F00702D1E9CF
:101580000B3423431A4342610B6943604B68836009
:101590008B68C36010BD00003F801CF04160704745
:1015A000704700001CB506480A2100238022CDE9BF
:1015B000001004A1064803F0EFFA02F043FE1CBD40
:1015C000EC00002073746172745F7461736B0000CF
:1015D000713B0008F0B50A4600210023002400BF3B
:1015E0003DE0012505FA01F3156805EA03049C4274
:1015F00034D105684F000326BE40B5430560157918
:101600004E00B5400668354305601579012D02D0BE
:101610001579022D16D185684F000326BE40B543CB
:10162000856055794E00B5408668354385604568CC
:1016300001268E40B5434560456896798E40B6B226
:1016400035434560C5684F000326BE40B543C560BD
:10165000D5794E00B540C6683543C560491C102990
:10166000BFD3F0BDF0B5002300244D07ED0E02FA04
:1016700005F3CE1000F1200555F826504E07F70E61
:101680000F26BE40B543CF1000F1200646F8275084
:10169000CE1000F1200555F8265045EA0304CE107F
:1016A00000F1200545F82640F0BD0183704700BFDA
:1016B000FEE700BFFEE7704770B5002100230F2250
:1016C000C4781CB3174C246804F4E064C4F5E064E7
:1016D000C4F30721C1F10404E3B20A4144789C40F9
:1016E000E1B28478144021430C07210E0E4C05789A
:1016F0006155047804F01F050124AC4005786D1194
:10170000AD0005F1E025C5F8004109E0047804F0DA
:101710001F050124AC40054D0678761145F826409A
:1017200070BD00000CED00E000E400E080E100E0AE
:1017300002490143024A1160704700000000FA05A7
:101740000CED00E0B0EE401A90ED100A80ED110AA9
:1017500090ED0F0A80ED100AC0ED060A80ED071A21
:1017600030EEC10A80ED0F0A90ED0F0AD0ED131A8A
:10177000B4EEE10AF1EE10FA0ADA90ED0F0AD0EDBC
:10178000131AF1EE611AB4EEE10AF1EE10FA02D882
:101790000021816401E001218164016800297BD17D
:1017A00090ED010AD0ED0F1A20EE210A80ED090A12
:1017B00090ED120AB8EEC00AD0ED021A60EE211ABE
:1017C00090ED0F2A90ED0A0A01EE820A80ED0A0AD6
:1017D00090ED0D0A80ED0E0A90ED0C0A80ED0D0AD9
:1017E00090ED0F0AD0ED101A30EE610A80ED0C0A70
:1017F00090ED030AD0ED0C1A20EE210A80ED0B0AC1
:1018000090ED0A0AD0ED051AB4EEE10AF1EE10FAF5
:1018100004DD90ED050A80ED0A0A10E090ED0A0A59
:10182000D0ED051AF1EE611AB4EEE10AF1EE10FA0C
:1018300005D290ED050AB1EE400A80ED0A0A90ED5E
:10184000090AD0ED0A1A30EE210AD0ED0B1A30EE5B
:10185000210A80ED080A90ED080AD0ED041AB4EED2
:10186000E10AF1EE10FA04DD90ED040A80ED080AB9
:101870007CE090ED080AD0ED041AF1EE611AB4EEA6
:10188000E10AF1EE10FA71D290ED040AB1EE400ACD
:1018900080ED080A6AE0FFE70168012966D190ED52
:1018A0000F0AD0ED101A30EE610AD0ED011A20EEC9
:1018B000210A80ED090A90ED120AB8EEC00AD0EDB7
:1018C000021A20EE210AD0ED0F1A20EE210A80ED37
:1018D0000A0A90ED0D0A80ED0E0A90ED0C0A80EDDB
:1018E0000D0A90ED0F0AD0ED101AB0EE002A02EEAC
:1018F000610AD0ED111A30EE210A80ED0C0A90ED4C
:10190000030AD0ED0C1A20EE210A80ED0B0A90EDAF
:10191000090AD0ED0A1A30EE210AD0ED0B1A30EE8A
:10192000210AD0ED081A30EE210A80ED080A90ED68
:10193000080AD0ED041AB4EEE10AF1EE10FA04DD63
:1019400090ED040A80ED080A10E090ED080AD0ED51
:10195000041AF1EE611AB4EEE10AF1EE10FA05D2C2
:1019600090ED040AB1EE400A80ED080A9FED010AED
:101970007047000000000000016080ED010AC0ED2A
:10198000020A80ED031AC0ED041A80ED052AC0EDAD
:10199000132A9FED0C3A80ED0E3A80ED0D3A80ED62
:1019A0000C3A9FED083A80ED083A80ED0B3A80ED55
:1019B0000A3A80ED093A80ED113A80ED103A80ED57
:1019C0000F3A70470000000029B1064A126802432E
:1019D000044B1A6004E0034A12688243014B1A6008
:1019E000704700003038024029B1064A12680243AD
:1019F000044B1A6004E0034A12688243014B1A60E8
:101A0000704700004038024029B1064A126802437C
:101A1000044B1A6004E0034A12688243014B1A60C7
:101A2000704700002038024029B1064A126802437C
:101A3000044B1A6004E0034A12688243014B1A60A7
:101A40007047000024380240F0B500210022002435
:101A5000022500260223324F3F6807F00C0121B116
:101A6000042905D0082937D105E02E4F076036E05C
:101A70002D4F076033E02A4F3F1F3F68C7F3805662
:101A8000274F3F1F3F6807F03F036EB1264FB7FB5C
:101A9000F3F7DFF88CC0ACF1040CDCF800C0CCF339
:101AA000881C07FB0CF40CE01E4FB7FBF3F7DFF8C4
:101AB00070C0ACF1040CDCF800C0CCF3881C07FB50
:101AC0000CF4174F3F1F3F68C7F301477F1C7D0091
:101AD000B4FBF5F7076002E0124F076000BF00BFDC
:101AE0000F4F3F6807F0F0010909104F7A5C076853
:101AF000D74047600A4F3F6807F4E051890A0B4F0F
:101B00007A5C4768D7408760054F3F6807F46041BB
:101B1000490B064F7A5C4768D740C760F0BD0000AC
:101B2000083802400024F40000127A00140000205B
:101B300070B590B004460E46154601210420FFF70B
:101B400043FF01218804FFF74FFF01218804FFF7BD
:101B50005BFF01218804FFF757FF01214805FFF7CC
:101B600033FF07220B214348FFF77CFD4FF4006051
:101B70000E9002208DF83C0000208DF83E000220DF
:101B80008DF83D0000208DF83F000EA93948FFF781
:101B900021FD394800F052FC38480A900020ADF889
:101BA0002C00ADF82E004FF48060ADF8300004201A
:101BB000ADF832000020ADF834000AA92E4800F03C
:101BC00005FD012240212C4800F02EFC10212A485E
:101BD00000F006FC012240F22441274800F0D0FC2E
:101BE0000121254800F014FC27208DF83C0004203A
:101BF0008DF83D0000208DF83E0001208DF83F005B
:101C00000FA8FFF759FD1E48FFF7CAFB4FF0006011
:101C100001901948001D029003940020049005953E
:101C200006904FF4806007900020089009904FF4D0
:101C300080700A904FF440300B9000200C900D9073
:101C40000E900F9001A90E48FFF77CFC0022314650
:101C50000B48FFF75CFC01210948FFF74DFC002110
:101C60000748FFF791FB01210548FFF78DFB10B0F6
:101C700070BD00000008024000480040A08601003E
:101C80002860024070B505460C4605B104B970BD28
:101C900029786A7841EA0221C1F30A00FEF79AFC2A
:101CA000206061606978C910AA7841EA4211C1F3E5
:101CB0000A00FEF78FFCA060E160A9788911EA783C
:101CC00041EA82012A7941EA8221C1F30A00FEF742
:101CD00081FC20616161297949106A7941EAC21168
:101CE000C1F30A00FEF776FCA061E1616879C0F3F8
:101CF000011084F828006879001181082920015515
:101D0000297C6A7C41EA0220FEF764FC2062616261
:101D1000206861689FED181B53EC112BFEF773FBD5
:101D200020606160A068E1689FED131B53EC112BEC
:101D3000FEF769FBA060E160206961699FED0E1B01
:101D400053EC112BFEF75FFB20616161A069E16933
:101D50009FED091B53EC112BFEF755FBA061E161D0
:101D6000206A616A9FED041B53EC112BFEF74BFBBD
:101D70002062616200BF8AE700000000000090401E
:101D80000CB50020019000903448006840F4803089
:101D90003249086000BF3148006800F4003000900C
:101DA0000198401C0190009818B90198B0F5A04F17
:101DB000F1D12A48006800F4003010B101200090F1
:101DC00001E0002000900098012846D123484030CF
:101DD000006840F080502149403108602048006888
:101DE00040F440401E4908601C48083000681B4908
:101DF000083108600846006840F400400860084662
:101E0000006840F4A05008601648091F0860081FC9
:101E1000006840F08070091F086000BF0F4800682C
:101E200000F000700028F9D040F205700E490860FB
:101E30000A480830006820F00300084908310860AB
:101E40000846006840F00200086000BF0348083000
:101E5000006800F00C000828F8D10CBD00380240E2
:101E60000070004008544007003C0240042808D19C
:101E70004FF0E021096941F004014FF0E0221161C7
:101E800007E04FF0E021096921F004014FF0E02262
:101E90001161704710B502F0AFFE012801D002F0C9
:101EA00031FB10BD10B51548006840F470001349AF
:101EB00008601348006840F00100114908600020E4
:101EC0000F49083108600E4800680E4908400C4967
:101ED00008600D48091D0860081F006820F4802074
:101EE000091F0860002006490C310860FFF748FF11
:101EF0004FF0006001498039086010BD88ED00E0B6
:101F000000380240FFFFF6FE1030002410B501211A
:101F1000034800F0B4F80121014800F0A1F810BD19
:101F2000000400407FB505460C4601210220FFF762
:101F30005BFD0295ADF804400020ADF80600ADF859
:101F40000C0001A90D4800F061F9012211460B486F
:101F500000F0A6F80121094800F085F81D208DF851
:101F6000000001208DF8010003208DF802000120FF
:101F70008DF803006846FFF79FFB7FBD000400401B
:101F800030B58BB004460D4601210820FFF72CFD2B
:101F900001210846FFF718FD022200212848FFF71B
:101FA00061FB022201212648FFF75CFB012009901A
:101FB00002208DF8280003208DF8290000208DF8DC
:101FC0002A0001208DF82B0009A91D48FFF702FB0C
:101FD0000220099009A91A48FFF7FCFAA8B2ADF847
:101FE00018000020ADF81A000794ADF8200006A9EB
:101FF000144800F00BF96020ADF804000120ADF8A2
:1020000006000020ADF81000039001A90D4800F073
:1020100051F808210B4800F08BF801A9094800F09D
:1020200091F80821074800F0DFF80121054800F089
:102030000BF80121034800F016F80BB030BD00008A
:1020400000000240000C004021B1028842F08002F2
:10205000028004E002884FF67F731A4002807047C6
:10206000CA430282704721B1028842F00102028015
:1020700004E002884FF6FE731A400280704730B5C4
:102080000246002000230024158A05EA01039589F1
:1020900005EA010413B10CB1012000E0002030BDBD
:1020A0001AB183890B43838102E083898B43838147
:1020B0007047000070B5002400220023058C4FF605
:1020C000FE7635400584028C8388048B4FF68F752D
:1020D0002C40B51E2C400D882C43751E2A408D893E
:1020E0002A434D882A43104DA84202D00F4DA842E2
:1020F00013D14FF6F7752A40CD892A434FF6FB7569
:102100002A408D882A434FF6FF652B404FF6FF5536
:102110002B400D8A2B434D8A2B43838004838D688B
:102120004563028470BD00000000014000040140CE
:102130000A460021018B4FF6F773194011430183C2
:102140007047000070B5002400220023058C4FF674
:10215000EF7635400584028C8388048B48F6FF7542
:102160002C404FF6FF452C400D884FF6FF7606EACF
:1021700005252C434FF6DF752A408D8906EA0515A3
:102180002A434D8806EA05152A43154DA84202D078
:10219000144DA8421DD14FF67F752A40CD894FF6C8
:1021A000FF7606EA05152A434FF6BF752A408D884B
:1021B00006EA05152A434FF6FF352B404FF2FF750F
:1021C0002B400D8A06EA85052B434D8A06EA8505D4
:1021D0002B43838004838D688563028470BD000077
:1021E00000000140000401400A460021018B4FF22B
:1021F000FF7319404FF6FF7303EA0223194301836B
:102200007047416370478163704700000022028875
:10221000184B98420ED0184B98420BD0B0F1804F1B
:1022200008D0164B984205D0154B984202D0154B5A
:10223000984204D14FF68F731A404B881A43124BC1
:10224000984207D0114B984204D04FF6FF431A40F2
:102250000B891A4302804B68C3620B880385054BC8
:10226000984202D0044B984201D18B7A0386012315
:1022700083827047000001400004014000040040D8
:1022800000080040000C0040001000400014004016
:1022900010B510480068142802D100200D490860CC
:1022A0000D4800F0FDF90D490870084600780C490A
:1022B000084A1268885407480068401C05490860AD
:1022C0002021054800F08CF806480068401C0549AC
:1022D000086010BDA4000020001001409C000020F8
:1022E000B0540020A000002010B540F2255136481F
:1022F00000F01CF918B1344800F0D2F962E040F265
:102300002441314800F012F900285BD02E4800F03B
:10231000C7F92E48FFF70BF938BB00212B48FFF710
:1023200033F82A48FFF7FFF8C0F124002849088055
:1023300024212648FFF732F924482838806A40F4DF
:10234000002022492839886222492048FFF702F8F4
:1023500001211E48FFF718F81D48008812282CD1CB
:102360001D491E48FFF78EFC27E000211748FFF7A4
:102370000BF81648FFF7D7F8C0F12400144908807D
:1023800024211248FFF70AF910482838806A20F4FF
:1023900000200E49283988620E490C48FEF7DAFF02
:1023A00001210A48FEF7F0FF09480088122804D1ED
:1023B00009490A482430FFF765FC40F224410248ED
:1023C00000F017F810BD00000048004028600240EF
:1023D0005C0100203000002008590020C058002077
:1023E00001F40072B2F5007F00D100BFCA43028041
:1023F000704710B50022002340F66A14A14200D1B4
:1024000000BF0A1201249440A3B2DC43048010BD33
:1024100021B1828942F40052828104E082894DF622
:10242000FF731A40828170471AB1838A0B438382FB
:1024300002E0838A8B4383827047000010B5044614
:102440003248844208D101211020FFF7EDFA002123
:102450001020FFF7E9FA57E02D48844209D1012105
:102460004804FFF7D1FA00214FF40030FFF7CCFA0F
:102470004AE02848844209D101218804FFF7C4FAC0
:1024800000214FF48020FFF7BFFA3DE0224884424C
:1024900009D10121C804FFF7B7FA00214FF4002049
:1024A000FFF7B2FA30E01D48844209D10121080546
:1024B000FFF7AAFA00214FF48010FFF7A5FA23E0F6
:1024C0001748844208D101212020FFF7ADFA0021EE
:1024D0002020FFF7A9FA17E01248844209D1012110
:1024E0008807FFF791FA00214FF08040FFF78CFA40
:1024F0000AE00D48844207D101214005FFF784FA24
:1025000000216005FFF780FA10BD000000100140B7
:102510000044004000480040004C00400050004093
:102520000014014000780040007C004070B5024675
:10253000002400230025002040F66A16B14200D195
:1025400000BFC1F3421501F01F03012606FA03F391
:10255000012D02D19689334006E0022D02D1168A60
:10256000334001E0968A33400C12012606FA04F447
:102570001688344013B10CB1012000E0002070BD7A
:10258000F0B50346002400260025002040F66A1717
:10259000B94200D100BF1846C1F3421401F01F0632
:1025A000012707FA06F5012C01D10C3004E0022CBA
:1025B00001D1103000E014301AB107682F430760D2
:1025C00002E00768AF430760F0BD00002DE9FF4758
:1025D00005460E460024A14600BFA046B08900B1C2
:1025E00000BF2C8A24F44054F08804432C82AC8928
:1025F00041F20C608443B0883189084371890843F3
:102600000443AC81AC8A24F44074B0890443AC82A6
:102610006846FFF719FA2048854202D01F488542D4
:1026200002D1DDF80C9001E0DDF80890A88900F4F3
:10263000004040B109EBC90000EB091031684900C6
:10264000B0FBF1F707E009EBC90000EB09103168B6
:102650008900B0FBF1F76420B7FBF0F0040120091A
:10266000642101FB1078A88900F4004040B13220B9
:1026700000EBC800B0FBF1F000F00700044308E0F5
:10268000322000EB08106421B0FBF1F000F00F00E5
:1026900004432C81BDE8FF87001001400014014075
:1026A00001468888C0F30800704700BFFEE70000BD
:1026B0000FB4054B10B503A9044A029800F018F8AE
:1026C00010BC5DF814FB0000FD290008600100202B
:1026D00002E008C8121F08C1002AFAD170477047EB
:1026E000002001E001C1121F002AFBD17047000049
:1026F0002DE9FF4F8BB09A460F460546002606E0AF
:1027000025280BD052460D9990476D1C761C2878D1
:102710000028F5D10FB03046BDE8F08F0024A04668
:102720000122604900E0044315F8013F203B02FA12
:1027300003F00842F7D128782E2817D115F8010F99
:1027400044F004042A280ED06FF02F022878A0F15C
:10275000300109290AD808EB880102EB410100EB9E
:1027600001086D1CF2E757F8048B6D1C2878692866
:102770003ED006DC0028CDD063280BD0642804D1DD
:1027800036E0732810D075284BD052460D999047EB
:10279000761C85E017F8040B8DF8000000208DF8FA
:1027A0000100E946012003E057F8049B4FF0FF3099
:1027B00061074FF0000401D40AE0641C44450DDABF
:1027C0008442FADB19F804100029F6D106E0641CF3
:1027D0008442FCDB19F804100029F8D1264404E0F7
:1027E00019F8010B52460D999047641EF8D257E034
:1027F00001CF4FF00A0B002802DA40422D2102E0FF
:10280000210504D52B218DF82410012103E0E107D7
:1028100005D02021F7E70DF1200908910CE00021F7
:10282000F9E701CF4FF00A0BF9E75946FDF71AFF18
:1028300001F1300209F8012D0028F6D1ADEB0900B5
:1028400000F1200B600701D44FF00108D84502DDEC
:10285000A8EB0B0000E000208046002406E009A859
:102860005246005D0D999047641C761C089884427E
:10287000F5DB04E0302052460D999047761CB8F104
:102880000001A8F10108F5DC05E019F8010B52463A
:102890000D999047761CBBF10001ABF1010BF4DC04
:1028A0006D1C34E70928010070B506460D4600246A
:1028B0003BE004EB440105EBC10191ED053AF0EE7C
:1028C000432A04EB440105EBC10191ED043AB0EE5B
:1028D000432A04EB440105EBC10191ED033AF0EE0C
:1028E000431A04EB440105EBC10191ED023AB0EE4D
:1028F000431A04EB440105EBC10191ED013AF0EEFE
:10290000430A04EB440105EBC10191ED003AB0EE3E
:10291000430AC4EBC40206F1200101EB021101F1EC
:1029200008000021FFF728F8641C042CC1DB70BDEF
:1029300070B504460420FFF799FA0C480470254648
:102940004FF47A7045430120094908804FF0E02098
:10295000006940F002004FF0E0210861084645613F
:10296000006940F00100086170BD0000980000207F
:102970009A00002070B5044602F03EF9012810D0FC
:102980000B480088844206D309480088B4FBF0F560
:10299000284601F0BBFA06480088B4FBF0F100FBC2
:1029A00011444FF47A7104FB01F000F003F870BD9C
:1029B0009A00002070B5034600224FF0E0267569AA
:1029C0000D4E367803FB06F44FF0E026B16910E0B7
:1029D0004FF0E026B06988420BD0884202D20E1A2E
:1029E000324402E02E1A0E4432440146A24200D381
:1029F00000E0EDE700BF70BD9800002038B5044648
:102A00008DF8000069460320ABBE204638BD0000AB
:102A10001CB501210820FEF7D7FF1C2000900120E3
:102A20008DF8040000208DF8060003208DF80500C5
:102A300001208DF8070069460348FEF7CBFD1C21F5
:102A40000148FEF732FE1CBD000C0240F8B50546F9
:102A50000E4614463A48B0F94E0200EE900AF8EEDF
:102A6000E00AB0EE600A3748D0ED000AF8EEE00A5E
:102A70003548FEF767FE3248B0F9BE0200EE900A14
:102A8000F8EEE00AB0EE600A3048D0ED000AF8EE49
:102A9000E00A2D487030FEF755FE2948B0F92E03A4
:102AA00000EE900AF8EEE00AB0EE600A2848D0ED99
:102AB000000AF8EEE00A2448E030FEF743FE00206A
:102AC00000901F4890EDBF0ABDEEC00A10EE103A0C
:102AD00090EDA30ABDEEC00A10EE102A90ED870A11
:102AE000BDEEC00A10EE101A4FF4007000F03EF870
:102AF0001348D0F8540217490968884207DB0020C0
:102B00001049086000210E48C0F8581204E01CB1BA
:102B10004FF4FA600B4908600948D0F8C4020E4926
:102B20000968884207DC0020084908600021044841
:102B3000C0F8C81203E014B1084804490860F8BDA1
:102B40000C550020C000002008570020C4000020C1
:102B5000C8000020CC000020D000002030F8FFFF8B
:102B600000F080FEFEF71EFD00BFFEE72DE9F041FC
:102B700086B007460C4615461E46DDF83080082014
:102B80008DF80E0000208DF80C008DF80D000197D7
:102B9000200A8DF80F008DF81040290A8DF81110C9
:102BA0008DF81250310A8DF813108DF814604FEA29
:102BB00018218DF815108DF8168001A90248FEF72E
:102BC00036FB06B0BDE8F081006800402DE9F04119
:102BD00005460E461C4807681C480068001D00F0AA
:102BE000D7FF50B91948006890F82C100120884090
:102BF00017490968814316480160681C38B936B125
:102C000012480168091D134801F000F81AE07C1908
:102C10000E4800684460BC4207D20C480168091D98
:102C20000D48006800F0D8FF0CE008480168091D55
:102C30000A48006800F0D0FF09480068844201D2C9
:102C400007480460BDE8F08138000020240000201F
:102C50003C000020740400202C00002028000020EC
:102C60005400002010B5044600F0DCFF2448006842
:102C7000401C234908602348006840B9214804608B
:102C80000846006801280DD100F0EEF90AE01E4860
:102C9000006838B91B480068C06AE16A884201D8F8
:102CA0001848046019480068401C18490860084624
:102CB0000068606494F82C10012088401449096869
:102CC000084313490860E16A01EB8101114A02EBF4
:102CD0008100211D00F09AFF00F0E8FF0A4800681B
:102CE00068B108480068C06AE16A884207D24FF0BC
:102CF000805009490860BFF34F8FBFF36F8F10BD3D
:102D0000340000202400002040000020500000205B
:102D10003C000020A401002004ED00E010B500F00C
:102D200081FF10480068D0B90F4800F045FF0F48F8
:102D300000F042FF0C480E4908600C480D4908603D
:102D400000221021052001F0F7FB06490860084623
:102D5000006820B108A10348006801F09BF800F06A
:102D6000A5FF10BD68000020880400209C040020FE
:102D70006000002064000020546D725100000000CB
:102D800070B523E001F0B4FA1348006808B90120D7
:102D900000E00020054602F0BBF8BDB900F042FF9C
:102DA0000D48C068C468201D00F0F2FE0B480068A2
:102DB000401E0A4908600A480068401E0849086029
:102DC00000F074FF204600F060F800BF044800687F
:102DD0000028D7D170BD000060040020340000201E
:102DE0003000002070B504460D46206C70B1216C97
:102DF000E0680844E0606168E068884201D32068C8
:102E0000E0602846226CE168FDF738FA70BD2DE9D4
:102E1000F04104460F4615464FF00008A66B206CA3
:102E200040B9206860BB606801F0ACFF80460020BC
:102E3000606025E07DB93946226CA068FDF71EFA76
:102E4000216CA0680844A060D4E90110884217D31F
:102E50002068A06014E03946226CE068FDF70EFAA5
:102E6000216CE068401AE0602168E068884203D283
:102E7000216C6068401AE060022D01D106B1761E17
:102E8000701CA0634046BDE8F08110B50446206B7D
:102E900000F044FF204600F041FF10BD0146084A03
:102EA000126812680AB9012200E000220A600A686A
:102EB00022B9034A1268D268106800E00020704707
:102EC0006000002030B54FF4A043174800F007041D
:102ED0002CB1C01D20F00700134C041B1B1B024625
:102EE000124C22600024114D6C60D018083820F07C
:102EF00007000F4C206000240D4D2D686C600C4DB8
:102F00002D682C601146441A4C60094C24680C60F2
:102F1000084D4C682C60084D4C682C604FF0004404
:102F2000064D2C6030BD0000B0040020740000206D
:102F30007C00002084000020800000208800002009
:102F400000BFFFF71DFF064800680128F9D94FF0C0
:102F5000805004490860BFF34F8FBFF36F8FF0E7D5
:102F6000A401002004ED00E02DE9F04106460D46E5
:102F700017469846069C0DB9246000E02760E6637A
:102F800025640121204601F0F5FB84F850800020E3
:102F9000A064BDE8F08100002DE9F05F82460F4695
:102FA00090469B460A9E0C9C4FEA8801A522206B06
:102FB000FDF776F9A8F10100216B01EB800929F0FA
:102FC000070909F0070008B9012000E0002028B92E
:102FD00040F22B321BA120A0FFF76AFB002507E07F
:102FE000795D04F134004155785D00B902E06D1C53
:102FF000102DF5D300BF002143200155202E00D312
:103000001F26E662E66400202065201D00F0E1FD39
:1030100004F1180000F0DDFD2461C6F12000A0617C
:1030200064620020606584F858005A46514648465C
:1030300000F002FC20600B9808B10B980460BDE81A
:10304000F09F00002E2E5C4672656552544F535C13
:103050007461736B732E63004572726F723A2573DD
:103060002C25640D0A00000010B5002407E004EBD5
:1030700084010F4A02EB810000F09EFD641C202CAD
:10308000F5D30C4800F098FD0B4800F095FD0B4877
:1030900000F092FD0A4800F08FFD0A4800F08CFD18
:1030A00004480949086004480849086010BD000048
:1030B000A401002024040020380400204C04002037
:1030C0006004002074040020280000202C00002050
:1030D00010B50146164800E0006803688B42FBD338
:1030E0000246436813448B4204D143684C6823442E
:1030F000436001460A464B6813440468A34211D159
:103100000C4C03682468A34208D04B6804686468C8
:1031100023444B6003681B680B6005E0054B1B688C
:103120000B6001E003680B60884200D0016010BDB5
:10313000740000207C0000202DE9F04104460D467B
:1031400016461F464FF0000865602461B5420CD852
:10315000F01BA169884202D34FF0010811E0211D44
:103160000948006800F038FD0BE0BE4204D2BD42C1
:1031700002D34FF0010804E0211D0448006800F06C
:103180002BFD4046BDE8F081640000206000002077
:1031900070B5054600F046FDA86B08B9012400E0B3
:1031A000002400F083FD204670BD70B5054600F098
:1031B00039FDA86BE96B884201D1012400E00024AD
:1031C00000F074FD204670BD2DE9F3410D460098D6
:1031D000846C00272CB940F6CE121AA11EA0FFF76E
:1031E00067FAA06BE16B884201D2012000E0002069
:1031F00028B940F6CF1213A117A0FFF759FAA06B18
:10320000E16B88421BD294F945602A466946204604
:10321000FFF7FDFD0746701C60B9606A08B9012020
:1032200000E0002050B904F1240001F017FE28B19D
:10323000012703E0701C40B284F8450000BF384607
:10324000BDE8FC812E2E5C4672656552544F535C7E
:1032500071756575652E63004572726F723A2573DC
:103260002C25640D0A000000F8B505460F461348EA
:103270000068C068C468201D00F08AFCE06901286D
:1032800018D1A06941192B463A462046FFF754FF52
:1032900080B1002003462A4601460090204601F0F6
:1032A00001FF06462EB94FF4027205A10AA0FFF7EE
:1032B000FFF900BF2046616A8847F8BD6000002022
:1032C0002E2E5C4672656552544F535C74696D6571
:1032D00072732E63000000004572726F723A25739C
:1032E0002C25640D0A000000F0B587B070E003984B
:1032F00000280CDA04AE2EB940F2E7223AA140A031
:10330000FFF7D6F9D6E90020B168904700BF0398CF
:1033100000285DDB059C606908B9012000E0002001
:1033200010B9201D00F034FC02A800F0C7F80546D3
:1033300003980A284AD2DFE800F00905072C2E4539
:1033400006082D2F00BF00BF00BF00BF0498A26970
:10335000811803462A462046FFF7EEFEC0B12046FC
:10336000616A8847E069012812D100200090049822
:10337000A169421800231946204601F093FE074632
:103380002FB940F2213218A11DA0FFF791F900BF1B
:103390001DE000BF1BE000BF0498A061A06908B158
:1033A000012000E0002028B94FF44E720EA114A0B5
:1033B000FFF77EF9A06941192B462A462046FFF700
:1033C000BBFE04E0204600F0A9FC00E000BF00BF07
:1033D00000231A4603A90E48006801F0E7F8002808
:1033E00085D107B0F0BD00002E2E5C467265655297
:1033F000544F535C74696D6572732E630000000056
:103400004572726F723A25732C25640D0A00000014
:1034100068000020F8B505460C4600F069FF6846D4
:1034200000F04CF80646009820BB44B9B54206D8D7
:1034300001F06EFD31462846FFF716FF1CE03CB157
:103440000E480068006808B9012000E0002004462A
:10345000A91B22460A48006800F032FD01F058FD21
:1034600050B94FF0805007490860BFF34F8FBFF34A
:103470006F8F01E001F04CFDF8BD000064000020FA
:103480006800002004ED00E00A490968096809B9EC
:10349000012100E0002121B14FF0FF31064A116007
:1034A00006E004490968C968C868034A41681160B0
:1034B00070470000280000205400002070B504462A
:1034C00001F0AAFB054607480068854204D200F0D7
:1034D0000BF80120206001E0002020600148056019
:1034E000284670BD700000202DE9F8432DE02148EA
:1034F0000068C06805681F480068C068C468201D6F
:1035000000F046FB2046616A8847E06901281CD12B
:10351000A0694619AE4207D966602461211D15488D
:10352000006800F059FB10E0002003462A460146DF
:103530000090204601F0B6FD07462FB940F29232C6
:103540000DA113A0FFF7B4F800BF0A480068006897
:1035500008B9012000E000200028C8D00548D0F8B4
:1035600000800F480068034908600D48C0F80080DB
:10357000BDE8F883600000202E2E5C46726565521F
:10358000544F535C74696D6572732E6300000000C4
:103590004572726F723A25732C25640D0A00000083
:1035A000640000200C480068401C08B9012000E0BD
:1035B000002028B940F20F1208A113A0FFF778F8F5
:1035C00000BF502080F31188BFF34F8FBFF36F8F80
:1035D00000BF00BFFEE700008C0000202E2E5C46DE
:1035E00072656552544F535C706F727461626C65A2
:1035F0005C525644535C41524D5F434D34465C70BF
:103600006F72742E630000004572726F723A2573F8
:103610002C25640D0A00000008B500BF6846FFF7BE
:103620003DFC044620460099FFF7F4FEFFF75CFEE0
:10363000F4E770B5044600F0F5FA94F945501AE045
:10364000A06C38B100212046FFF7BEFD88B100F024
:103650001DFD0EE0606A08B9012000E0002038B9C5
:1036600004F1240001F0FAFB18B100F00FFD00E0B6
:1036700003E0681E45B2002DE2DC00BFFF2084F8A5
:10368000450000F013FB00F0CDFA94F9445010E02F
:10369000206908B9012000E0002048B904F11000B9
:1036A00001F0DCFB08B100F0F1FC681E45B200E05F
:1036B00001E0002DECDC00BFFF2084F8440000F0A6
:1036C000F5FA70BD2DE9F04104464FF0000800F016
:1036D0000FFE3E48006808B9FFF7F4FB3C4800685D
:1036E000204000285FD1A4B1083404F0070080B165
:1036F00004F00700C0F10800044404F0070008B912
:10370000012000E0002020B9BF2232A13BA0FEF73B
:10371000CFFF002C47D03D480068844243D83C4E40
:103720003046056801E02E462D686868A04202D246
:1037300028680028F7D125480068854233D03068D2
:1037400000F10808286830606868001B102813D949
:103750002F1907F0070008B9012000E0002020B968
:10376000EC221CA125A0FEF7A3FF6868001B78606F
:103770006C603846FFF7ACFC244968680968081A91
:10378000224908600846006822490968884203D235
:103790001E4800681F4908600D49686809680843A9
:1037A00068600020286001F0B3FB08F0070008B94A
:1037B000012000E0002028B94FF4967205A10FA067
:1037C000FEF776FF4046BDE8F08100007C00002057
:1037D000880000202E2E5C4672656552544F535C63
:1037E000706F727461626C655C4D656D4D616E6782
:1037F0005C686561705F342E630000004572726F13
:10380000723A25732C25640D0A0000008000002008
:1038100074000020840000200648006830B105498B
:10382000096801F15000096D491C016001480068F8
:103830007047000024000020001F4FF080730360D9
:10384000001F21F001030360001F054B03601438C3
:103850000260001F6FF00203036020387047000011
:10386000A535000808B54FF44070FDF761FF42F23E
:10387000CF0141F28730FEF755FB532141F28730EB
:10388000FEF77EFBA820FFF753F8FFF7C1F800F022
:1038900017F800200323082219460090FCF7C6FF02
:1038A00000200323082219460090FDF7A3F90249DE
:1038B0000248FEF7F9FF08BDFC0000200C5500206F
:1038C00010B524220249A1F12400FEF731F910BD00
:1038D000E45800202DED068B82B041F28830FFF7CE
:1038E00049F8002081490860814890ED053AF0EEE2
:1038F000432A90ED043AB0EE432A90ED033AF0EEFD
:10390000431A90ED023AB0EE431A90ED013AF0EE10
:10391000430A90ED003AB0EE430A00217548FEF7E5
:103920002BF8734890ED053AF0EE432A90ED043AF7
:10393000B0EE432A90ED033AF0EE431A90ED023ACE
:10394000B0EE431A90ED013AF0EE430A90ED003AE2
:10395000B0EE430A002167487030FEF70DF8644866
:1039600090ED053AF0EE432A90ED043AB0EE432A8A
:1039700090ED033AF0EE431A90ED023AB0EE431A9E
:1039800090ED013AF0EE430A90ED003AB0EE430AB2
:1039900000215848E030FDF7EFFFA5E056480078D9
:1039A000012816D15548B0F84C02554908605348D3
:1039B000B0F8BC0253490860534854490860514864
:1039C00000685149494208445149086000204A4969
:1039D0000870504890F82800022818D14D4890F8F7
:1039E0002900022813D10020034602460146009018
:1039F0004FF40070FFF7BAF84FF47A714648FEF7BB
:103A000000FC4FF47A714448FEF7FDFB69E0414841
:103A100090F8280001281BD140480068FCF7DAFD27
:103A200041EC180B3B49086A496A41EC100B53EC16
:103A3000102B51EC180BFCF7ECFC9FED390B53EC01
:103A4000102BFCF758FDFCF7D6FD3749086032E033
:103A5000304890F8280003282DD12E498869C9697B
:103A60009FED321B53EC112BFCF7D3FC9FED2C0B7D
:103A700053EC102BFCF73FFDFCF7BDFD2D49086012
:103A800024498868C9689FED2C1B53EC112BFCF767
:103A9000D1FD03D001202A4908700CE01D49886837
:103AA000C9689FED251B53EC112BFCF7C3FD02D118
:103AB0000020234908701C48016801F57A711648F6
:103AC000FEF79FFB1848016801F57A711248FEF76E
:103AD0009AFB1B4802780E4801680C480068FEF704
:103AE000B5FF012000F012FA58E700008882414239
:103AF000A800002008570020E80000200C550020F6
:103B0000D4000020D8000020DC7F0400CC0000207E
:103B1000D000002008590020000C0040E4000020E4
:103B20000000000000A08440E00000200000000031
:103B300000409F40C800002000000000000000007E
:103B4000DC0000201CB50548192100238022CDE9A6
:103B5000001003A1054801F01FF81CBDF40000206F
:103B600073686F6F745F7461736B0000D538000801
:103B700010B5044600F056F8FFF7E4FF034800686C
:103B800000F0FEF900F092F810BD0000EC000020FB
:103B900001460A69D1E901309860D1E90103586012
:103BA0005068884201D18868506000200861106820
:103BB000401E10601068704700F1080141604FF02E
:103BC000FF31816000F10801C160016100210160E5
:103BD000704700210161704710B502460B685C1CFC
:103BE0000CB9106907E002F1080000E04068446881
:103BF00024689C42FAD944684C604C68A160886093
:103C000041600A611468641C146010BD42684A6017
:103C100093688B60936859609160086103685B1CCE
:103C20000360704710B500BF502080F31188BFF3C8
:103C30004F8FBFF36F8F00BF0B480068401C0A49CD
:103C400008600846006801280DD108480068C0B225
:103C500008B9012000E0002028B940F2B91204A1FF
:103C60000EA0FEF725FD10BD8C00002004ED00E045
:103C70002E2E5C4672656552544F535C706F7274A1
:103C800061626C655C525644535C41524D5F434DDA
:103C900034465C706F72742E630000004572726F60
:103CA000723A25732C25640D0A00000010B50B48EC
:103CB000006828B94FF4E07209A114A0FEF7F8FCDF
:103CC00006480068401E054908600846006820B99B
:103CD000002080F3118800BF00BF10BD8C000020C1
:103CE0002E2E5C4672656552544F535C706F727431
:103CF00061626C655C525644535C41524D5F434D6A
:103D000034465C706F72742E630000004572726FEF
:103D1000723A25732C25640D0A00000070B5064622
:103D20003546002E35D0083D2C461A496068096892
:103D3000084008B1012000E0002028B94FF4A0722B
:103D400015A11FA0FEF7B4FC206808B9012000E00F
:103D5000002028B940F241120FA119A0FEF7A8FCDB
:103D60000C4960680968084098B1206888B9094919
:103D7000606809688843606000F0BAFA14496068B6
:103D800009680844124908602046FFF7A1F901F0CC
:103D9000BFF870BD880000202E2E5C46726565520B
:103DA000544F535C706F727461626C655C4D656DED
:103DB0004D616E675C686561705F342E6300000062
:103DC0004572726F723A25732C25640D0A0000004B
:103DD00080000020064800684FF47A71B0FBF1F0D3
:103DE000401E4FF0E0214861072008617047000045
:103DF0000000002070B5FCF72BFA0546102D11D3FA
:103E000005F1E02090F8F04310480078844201DB8F
:103E1000012000E0002028B94FF440720CA117A047
:103E2000FEF746FC1948006800F4E060184909688C
:103E3000884201D8012000E0002028B94FF44472E4
:103E400003A10EA0FEF734FC70BD0000900000201E
:103E50002E2E5C4672656552544F535C706F7274BF
:103E600061626C655C525644535C41524D5F434DF8
:103E700034465C706F72742E630000004572726F7E
:103E8000723A25732C25640D0A0000000CED00E049
:103E900094000020024600200BE0084B53F830301D
:103EA00033B9064B43F8301003EBC0035A6002E00D
:103EB000401C0828F1D300BF7047000064010020B7
:103EC0002DE9F04105460E4617462C46FFF7AAFE9F
:103ED00094F94400401C10B9002084F8440094F97F
:103EE0004500401C10B9002084F84500FFF7DEFEB5
:103EF000A06B28B93A46314604F1240000F0F6F8E8
:103F00002046FFF796FBBDE8F081000070B504463F
:103F10000025ACB10F48006808B9012000E000207E
:103F200028B940F2CF420CA110A0FEF7C1FB00F06F
:103F3000DFF900212046FEF749FE00F0E9FF0546C3
:103F40003DB94FF080500D490860BFF34F8FBFF36C
:103F50006F8F70BD5C0000202E2E5C46726565522E
:103F6000544F535C7461736B732E63004572726FB0
:103F7000723A25732C25640D0A00000004ED00E060
:103F800070B50546FFF74EFE15B92D48006800E0F4
:103F900028460446201DFFF7FBFD78B9E06A00EBD8
:103FA0008000284951F8200040B994F82C100120D5
:103FB000884025490968814323480160A06A18B1F7
:103FC00004F11800FFF7E4FD20480068401C1F4979
:103FD00008601B480068844209D1211D1C48FFF776
:103FE00015FE1C480068401C1A49086009E01A4880
:103FF0000068401E184908602046FEF746FFFFF79C
:1040000043FAFFF753FE15480068C0B10C4800683A
:10401000844214D11248006808B9012000E0002051
:1040200028B940F265420FA113A0FEF741FB4FF003
:10403000805015490860BFF34F8FBFF36F8F70BD7D
:1040400024000020A40100203C000020500000209B
:1040500060040020300000203400002040000020D8
:104060005C0000202E2E5C4672656552544F535CF6
:104070007461736B732E63004572726F723A2573AD
:104080002C25640D0A00000004ED00E00120014928
:10409000086070474800002070B504460D462CB9F2
:1040A00040F6063207A10CA0FEF702FB0E4801689D
:1040B00018312046FFF790FD01212846FEF786FDC6
:1040C00070BD00002E2E5C4672656552544F535CE5
:1040D0007461736B732E63004572726F723A25734D
:1040E0002C25640D0A0000002400002070B5054650
:1040F0000E4614462DB940F6313209A10DA0FEF747
:10410000D7FA1048016818312846FFF77FFD0CB137
:104110004FF0FF3621463046FEF758FD70BD0000D7
:104120002E2E5C4672656552544F535C7461736BFE
:10413000732E63004572726F723A25732C25640DDD
:104140000A0000002400002070B505462C46002D12
:104150004BD02649E06A0968C96A884245D2A069FD
:1041600000F0004028B921480068C06AC0F1200072
:10417000A061E16A01EB81011D4A02EB81016069E6
:10418000884201D1012000E0002050B3201DFFF73C
:10419000FFFC78B9E06A00EB8000154951F8200077
:1041A00040B994F82C1001208840124909688143D5
:1041B000104801600D480068C06AE06294F82C1055
:1041C000012088400B49096808430A490860E16AF0
:1041D00001EB8101064A02EB8100211DFFF716FD6C
:1041E00003E002480068C06AE06270BD240000205D
:1041F000A40100203C00002010B504462CB940F674
:10420000C13205A109A0FEF753FA0C4800682060EE
:104210000B480068606010BD2E2E5C4672656552CA
:10422000544F535C7461736B732E63004572726FED
:10423000723A25732C25640D0A0000004C00002002
:10424000380000201CB51A4800210B468222CDE917
:10425000001018A1194800F09FFC0446012C02D15F
:1042600000F0E6FE0446012C15D100BF502080F37B
:104270001188BFF34F8FBFF36F8F00BF4FF0FF3038
:104280000F49086001200F49086000200E490860AE
:1042900000F08AF80BE0601C08B1012000E000206B
:1042A00028B940F2847209A10DA0FEF701FA1CBDE5
:1042B0005800002049444C4500000000412F0008F0
:1042C0005400002040000020380000202E2E5C46C4
:1042D00072656552544F535C7461736B732E630047
:1042E0004572726F723A25732C25640D0A00000026
:1042F00002480068401C0149086070475C000020CB
:1043000010B51B48006818B101201A4908602DE05B
:1043100000201849086018480068B0FA80F0C0F121
:104320001F0404EB8400154951F8200008B1012056
:1043300000E0002028B940F6F62211A115A0FEF7F2
:10434000B7F904EB84010D4A02EB8100416849682A
:10435000416000F1080142688A4202D1416849681F
:1043600041604168C9680F4A116000BF10BD00007C
:104370005C000020480000203C000020A401002038
:104380002E2E5C4672656552544F535C7461736B9C
:10439000732E63004572726F723A25732C25640D7B
:1043A0000A000000240000201CB540480068404975
:1043B000884201D0012000E0002028B940F25912C3
:1043C0003CA147A0FEF774F9384800683849491EF7
:1043D000884201D0012000E0002028B94FF4AD72DE
:1043E00034A13FA0FEF764F9414C204600780190CB
:1043F000FF20214608700846007800909DF80000D4
:1044000000F0F0009DF80010884201D1012000E08A
:10441000002028B940F2731226A131A0FEF748F916
:104420009DF8000000F05000324908700720324922
:10443000086009E030480068401E2F4908609DF878
:1044400000004006000E00909DF8000000F0800083
:104450008028EFD0284800680002274908600846F5
:10446000008800F4E06008602149019808700F4856
:104470002030006840F470000C4920310860084684
:10448000006840F070400860FFF7A4FC00201B4962
:104490000860FBF7A5FE1A48006840F04040184944
:1044A0000860FBF78DFE00201CBD000000ED00E061
:1044B00071C20F412E2E5C4672656552544F535C9B
:1044C000706F727461626C655C525644535C415209
:1044D0004D5F434D34465C706F72742E6300000074
:1044E0004572726F723A25732C25640D0A00000024
:1044F00000E400E090000020940000208C000020E8
:1045000034EF00E010B500BF502080F31188BFF3F6
:104510004F8FBFF36F8F00BF00F084FB18B14FF0D7
:1045200080500449086000BF002080F3118800BF5C
:1045300010BD000004ED00E02DE9F84305460E46ED
:1045400090460DB1012000E0002028B94FF4C4725C
:104550000DA112A0FEF7ACF80EB9002701E005FB93
:1045600006F707F15400FFF7ADF8044644B104F133
:10457000540943464A46314628460094FEF7F4FC67
:104580002046BDE8F88300002E2E5C467265655219
:10459000544F535C71756575652E63004572726F7B
:1045A000723A25732C25640D0A0000002DE9FF479F
:1045B00082B005460E461F464FF0000A2C462CB925
:1045C00040F2DC4261A166A0FEF772F80EB9206CE1
:1045D00008B9012000E0002028B940F2DD425BA1CB
:1045E0005FA0FEF765F800F007FB08B9049808B96A
:1045F000012000E0002028B94FF49C6253A158A08C
:10460000FEF756F800BFFFF70DFBD4F83890B9F16C
:10461000000F3DD0D4F80C8031462046FEF7E2FB77
:10462000DFB9A9F10100A063206810B9FFF7F4F821
:104630006060206908B9012000E0002010BB04F18F
:10464000100000F00BFCE8B14FF0805048490860C2
:10465000BFF34F8FBFF36F8F14E0C4F80C80606A14
:1046600008B9012000E0002060B904F1240000F046
:10467000F5FB38B14FF080503D490860BFF34F8FD4
:10468000BFF36F8FFFF712FB012006B0BDE8F08784
:10469000049818B9FFF70AFB0020F6E7BAF1000FFB
:1046A00004D16846FFF7A8FD4FF0010AFFF7FEFAB4
:1046B000FFF71EFEFFF7B6FA94F94400401C10B94C
:1046C000002084F8440094F94500401C10B90020F3
:1046D00084F84500FFF7EAFA04A9684600F00CFAEE
:1046E00040BB2046FEF754FDF0B1206830B9FFF71B
:1046F00099FA6068FFF728FDFFF7D8FA04F1240063
:104700000499FFF7C9FC2046FEF793FF00F000FC78
:1047100000287FF478AF4FF0805015490860BFF350
:104720004F8FBFF36F8F6EE72046FEF782FF00F0DA
:10473000EFFB68E72046FEF77CFF00F0E9FB204630
:10474000FEF726FD0028EED000209EE72E2E5C46C8
:1047500072656552544F535C71756575652E6300C3
:104760004572726F723A25732C25640D0A000000A1
:1047700004ED00E070B505460E462C462CB940F21B
:104780001B121EA122A0FDF793FFFFF74BFAD4E9FD
:104790000F12206801FB020060600020A063206807
:1047A000A060E06B401E226C216800FB0210E060FC
:1047B000FF2084F8440084F845009EB9206908B9B8
:1047C000012000E00020A8B904F1100000F046FB31
:1047D00080B14FF0805012490860BFF34F8FBFF394
:1047E0006F8F07E004F11000FFF7E6F904F12400F1
:1047F000FFF7E2F9FFF75AFA012070BD2E2E5C4652
:1048000072656552544F535C71756575652E630012
:104810004572726F723A25732C25640D0A000000F0
:1048200004ED00E02DE9FF4383B0064688461D46AF
:104830004FF0000934462CB940F2D92260A165A09E
:10484000FDF736FFB8F1000F01D1206C08B9012047
:1048500000E0002028B940F2DA2259A15DA0FDF75E
:1048600027FF022D02D1E06B012801D1012000E0D9
:10487000002028B940F2DB2251A156A0FDF718FF15
:1048800000F0BAF908B9059808B9012000E0002045
:1048900028B940F2DE224AA14EA0FDF709FF00BF71
:1048A000FFF7C0F9A06BE16B884201D3022D38D12C
:1048B0002A4641462046FEF7AAFA0746A06C68B190
:1048C00029462046FEF780FC28B34FF0805045492A
:1048D0000860BFF34F8FBFF36F8F1CE0606A08B9A9
:1048E000012000E0002068B904F1240000F0B6FACD
:1048F00088B14FF080503B490860BFF34F8FBFF342
:104900006F8F08E03FB14FF0805036490860BFF329
:104910004F8FBFF36F8FFFF7C9F9012007B0BDE8D4
:10492000F083059818B9FFF7C1F90020F6E7B9F14F
:10493000000F04D101A8FFF75FFC4FF00109FFF75A
:10494000B5F9FFF7D5FCFFF76DF994F94400401C69
:1049500010B9002084F8440094F94500401C10B9B7
:10496000002084F84500FFF7A1F905A901A800F08F
:10497000C3F8F0B92046FEF718FCA0B104F110000E
:104980000599FFF789FB2046FEF753FE00F0C0FAB9
:10499000002885D14FF0805012490860BFF34F8F37
:1049A000BFF36F8F7CE72046FEF743FE00F0B0FABE
:1049B00076E72046FEF73DFE00F0AAFA0020ADE7BC
:1049C0002E2E5C4672656552544F535C7175657549
:1049D000652E63004572726F723A25732C25640D43
:1049E0000A00000004ED00E02DE9F05F80468A46F1
:1049F00015461E4644462CB940F29F3235A13AA0D6
:104A0000FDF756FEBAF1000F01D1206C08B9012064
:104A100000E0002028B94FF468722EA132A0FDF703
:104A200047FE022E02D1E06B012801D1012000E0F7
:104A3000002028B940F2A13226A12BA0FDF738FEB4
:104A4000FFF7D8F900BF5021EFF3118081F31188EF
:104A5000BFF34F8FBFF36F8F00BF0746A06BE16BB3
:104A6000884201D3022E2BD194F945B032465146EB
:104A70002046FEF7CCF90BF10100C8B9A06C40B19B
:104A800031462046FEF7A0FBB8B1B5B10120286041
:104A900013E0606A08B9012000E0002068B904F161
:104AA000240000F0DBF940B13DB10120286004E0B2
:104AB0000BF1010040B284F845004FF0010901E01C
:104AC0004FF0000900BF87F3118800BF4846BDE8DA
:104AD000F09F00002E2E5C4672656552544F535C69
:104AE00071756575652E63004572726F723A257334
:104AF0002C25640D0A0000002DE9F04104460D4606
:104B00002CB940F6CB3219A11DA0FDF7D1FD2DB96E
:104B100040F6CC3215A11AA0FDF7CAFDFFF782F8C6
:104B20001B4807682868401C08B9002619E0194985
:104B300020680968884204D06068B84201D801261C
:104B40000FE06068381A2968884209D228686168CD
:104B5000791A401A28602046FFF74EFB002600E035
:104B60000126FFF7A3F83046BDE8F0812E2E5C4603
:104B700072656552544F535C7461736B732E63009E
:104B80004572726F723A25732C25640D0A0000007D
:104B9000380000204C0000202DE9FF4F85B08046F2
:104BA00089461746DDE912ABB800FEF78BFD0646D5
:104BB00056B15C20FEF786FD04460CB1266304E086
:104BC0003046FFF7ABF800E000247CB10020CDE9CF
:104BD00000ABCDE902403A4649464046089BFEF705
:104BE000DBF92046FEF73EF8012501E04FF0FF35E6
:104BF000284609B0BDE8F08F0549096809B90120C8
:104C000005E00449096809B9022000E00020704766
:104C1000400000205C000020014908687047000047
:104C2000380000202DE9F0414FF0000841480068AD
:104C3000002872D140480068451C3F480560EDB926
:104C40003E480068006808B9012000E0002028B94B
:104C500040F6D9123AA13FA0FDF72AFD3748076870
:104C600040480068354908603E4807603E48006893
:104C7000401C3D490860FEF707FC00BF3B48006848
:104C800085423CD300BF2D480068006808B9012068
:104C900000E0002020B14FF0FF30344908602DE0E3
:104CA00026480068C068C4686668B54202D22F48CA
:104CB000066023E0201DFEF76BFFA06A18B104F127
:104CC0001800FEF765FF94F82C1001208840284951
:104CD0000968084326490860E16A01EB8101254A19
:104CE00002EB8100211DFEF791FF2349E06A09686C
:104CF000C96A8842C7D34FF00108C4E700BF1E4805
:104D00000068C06A00EB80001A4951F820000128B1
:104D100001D94FF0010805E0FFE718480068401C82
:104D2000164908601648006808B14FF0010840466F
:104D3000BDE8F0815C000020380000202800002041
:104D40002E2E5C4672656552544F535C7461736BD2
:104D5000732E63004572726F723A25732C25640DB1
:104D60000A0000002C0000204C000020540000200D
:104D70003C000020A401002024000020440000206A
:104D80004800002070B505462C460026002D4BD06B
:104D900026480068844201D1012000E0002028B9A3
:104DA00040F6C76222A127A0FDF782FC206D28B93A
:104DB00040F6C9621EA123A0FDF77AFC206D401EBB
:104DC0002065E16CE06A88422ED0206D60BB201D1A
:104DD000FEF7DEFE78B9E06A00EB80001D4951F86D
:104DE000200040B994F82C10012088401A49096825
:104DF000814319480160E06CE062E06AC0F1200084
:104E0000A06194F82C1001208840134909680843D8
:104E100011490860E16A01EB81010E4A02EB810051
:104E2000211DFEF7F3FE0126304670BD2400002050
:104E30002E2E5C4672656552544F535C7461736BE1
:104E4000732E63004572726F723A25732C25640DC0
:104E50000A000000A40100203C00002070B50646B6
:104E6000F068C4682CB940F661321AA11EA0FDF7A3
:104E70001FFC04F11800FEF78BFE1F480068A8B95C
:104E8000201DFEF785FE94F82C10012088401B4958
:104E90000968084319490860E16A01EB8101184A71
:104EA00002EB8100211DFEF7B1FE04E004F11801C0
:104EB0001448FEF7ABFE1449E06A0968C96A8842E3
:104EC00004D9012501201149086000E00025284689
:104ED00070BD00002E2E5C4672656552544F535CC7
:104EE0007461736B732E63004572726F723A25732F
:104EF0002C25640D0A0000005C0000203C0000200E
:104F0000A40100204C0400202400002048000020C0
:104F100070B5002400263448006828B94FF4FD62BB
:104F200032A137A0FDF7C4FBFEF77CFE2E480068D7
:104F3000401E2D4908600846006800284FD13448BB
:104F4000006800284BD024E03248C068C46804F1EF
:104F50001800FEF71DFE201DFEF71AFE94F82C1017
:104F6000012088402C49096808432B490860E16A00
:104F700001EB8101294A02EB8100211DFEF746FE6B
:104F80002749E06A0968C96A884202D30120254995
:104F900008602048006808B9012000E000200028CF
:104FA000D2D00CB1FEF770FA1F48056865B100BF9A
:104FB000FFF738FE10B101201A4908606D1E002D60
:104FC000F6D10020184908601648006838B101265B
:104FD000300716490860BFF34F8FBFF36F8FFEF79E
:104FE00065FE304670BD00005C0000202E2E5C4641
:104FF00072656552544F535C7461736B732E63001A
:105000004572726F723A25732C25640D0A000000F8
:10501000340000204C0400203C000020A4010020AB
:1050200024000020480000204400002004ED00E09F
:105030001CB50024FDF772FE0B48006858B10B4800
:105040001F2100234FF48272CDE9001008A10A4805
:10505000FFF7A2FD04462CB940F2331207A10DA0C0
:10506000FDF726FB20461CBD680000206C000020D8
:10507000546D722053766300193600082E2E5C465C
:1050800072656552544F535C74696D6572732E631B
:10509000000000004572726F723A25732C25640D72
:1050A0000A0000002DE9FF4704460D4616461F463C
:1050B000DDF830804FF000092CB94FF4D37217A1FE
:1050C0001CA0FDF7F5FA1F48006810B30095019683
:1050D0000294062D15DAFFF78FFD022808D1002370
:1050E0004246694617480068FFF79CFB814610E07E
:1050F00000231A46694613480068FFF793FB814670
:1051000007E000233A4669460E480068FFF76CFC4A
:105110008146484604B0BDE8F08700002E2E5C466C
:1051200072656552544F535C74696D6572732E637A
:10513000000000004572726F723A25732C25640DD1
:105140000A000000680000206851000800000020EC
:1051500064010000D0070008A45100086401002089
:10516000DC5B0000E026000811847A030A6809016C
:10517000020304060708090CA91001641AAA010118
:105180001A23E04053803F24409C454B4843046130
:10519000031AD0071B9001D0091E54119AFA540922
:0451A000461861004C
:040000050800018965
:00000001FF
